{
  "transactions": [
    {
      "hash": "0x1195c3393f60d18216163cbfda2c334dd97e8364ce12f7a1e5e502d6fc9ffa45",
      "transactionType": "CALL",
      "contractName": null,
      "contractAddress": "0x4b78ce5e47e73d0eb3455d1bee1226b17070c6bb",
      "function": "transmit(int192)",
      "arguments": [
        "2525000000000000000000"
      ],
      "transaction": {
        "from": "0x0fbaecf514ab7145e514ad4c448f417be9292d63",
        "to": "0x4b78ce5e47e73d0eb3455d1bee1226b17070c6bb",
        "gas": "0x1dfa0",
        "value": "0x0",
        "input": "0x82b8ebc7000000000000000000000000000000000000000000000088e16a09fa05540000",
        "nonce": "0x63",
        "chainId": "0xaa36a7"
      },
      "additionalContracts": [],
      "isFixedGasLimit": false
    }
  ],
  "receipts": [
    {
      "status": "0x1",
      "cumulativeGasUsed": "0x54bea8",
      "logs": [
        {
          "address": "0x4b78ce5e47e73d0eb3455d1bee1226b17070c6bb",
          "topics": [
            "0x0109fc6f55cf40689f02fbaad7af7fe7bbac8a3d2186600afc7d3e10cac60271",
            "0x0000000000000000000000000000000000000000000000000000000000000001",
            "0x0000000000000000000000000000000000000000000000000000000000000000"
          ],
          "data": "0x0000000000000000000000000000000000000000000000000000000066d301d0",
          "blockHash": "0x6a87594f6f92a85855c2756ba571737ef07fa158006f3a53068255608fc24eb5",
          "blockNumber": "0x64cd4a",
          "transactionHash": "0x1195c3393f60d18216163cbfda2c334dd97e8364ce12f7a1e5e502d6fc9ffa45",
          "transactionIndex": "0x2d",
          "logIndex": "0x34",
          "removed": false
        },
        {
          "address": "0x4b78ce5e47e73d0eb3455d1bee1226b17070c6bb",
          "topics": [
            "0x0559884fd3a460db3073b7fc896cc77986f16e378210ded43186175bf646fc5f",
            "0x000000000000000000000000000000000000000000000088e16a09fa05540000",
            "0x0000000000000000000000000000000000000000000000000000000000000001"
          ],
          "data": "0x0000000000000000000000000000000000000000000000000000000066d301d0",
          "blockHash": "0x6a87594f6f92a85855c2756ba571737ef07fa158006f3a53068255608fc24eb5",
          "blockNumber": "0x64cd4a",
          "transactionHash": "0x1195c3393f60d18216163cbfda2c334dd97e8364ce12f7a1e5e502d6fc9ffa45",
          "transactionIndex": "0x2d",
          "logIndex": "0x35",
          "removed": false
        }
      ],
      "logsBloom": "0x00000000000000000000000000000000000000000000000080000000000000000000000010000000000000000000000000000000000200000000000000040000000000000000000000000000002000000000000001040000000000000000000000000000020000000000000000000800000000000000000000000000000000000000000000000000000000000000000000000480000000000000000000000100000000001000000000000000000000000000000000000000000000000000000000000000000000000000000000000000000000000000000000000000000060000000000000000000000200000000000000000000000000000000010000000000",
      "type": "0x0",
      "transactionHash": "0x1195c3393f60d18216163cbfda2c334dd97e8364ce12f7a1e5e502d6fc9ffa45",
      "transactionIndex": "0x2d",
      "blockHash": "0x6a87594f6f92a85855c2756ba571737ef07fa158006f3a53068255608fc24eb5",
      "blockNumber": "0x64cd4a",
      "gasUsed": "0x11c39",
      "effectiveGasPrice": "0xfbc5b0e1",
      "from": "0x0fbaecf514ab7145e514ad4c448f417be9292d63",
      "to": "0x4b78ce5e47e73d0eb3455d1bee1226b17070c6bb",
      "contractAddress": null
    }
  ],
  "libraries": [],
  "pending": [],
  "returns": {},
  "timestamp": 1725104598,
  "chain": 11155111,
  "commit": "630c87c"
}