{
  "transactions": [
    {
      "hash": "0x27dd242c0c1c0f14ec42ceafadb101b740182881c83224d0b595533ff60dc60f",
      "transactionType": "CALL",
      "contractName": null,
      "contractAddress": "0x4b78ce5e47e73d0eb3455d1bee1226b17070c6bb",
      "function": "transmit(int192)",
      "arguments": [
        "2525000000000000000000"
      ],
      "transaction": {
        "from": "0x0fbaecf514ab7145e514ad4c448f417be9292d63",
        "to": "0x4b78ce5e47e73d0eb3455d1bee1226b17070c6bb",
        "gas": "0x15a84",
        "value": "0x0",
        "input": "0x82b8ebc7000000000000000000000000000000000000000000000088e16a09fa05540000",
        "nonce": "0x64",
        "chainId": "0xaa36a7"
      },
      "additionalContracts": [],
      "isFixedGasLimit": false
    }
  ],
  "receipts": [
    {
      "status": "0x1",
      "cumulativeGasUsed": "0x9fe594",
      "logs": [
        {
          "address": "0x4b78ce5e47e73d0eb3455d1bee1226b17070c6bb",
          "topics": [
            "0x0109fc6f55cf40689f02fbaad7af7fe7bbac8a3d2186600afc7d3e10cac60271",
            "0x0000000000000000000000000000000000000000000000000000000000000002",
            "0x0000000000000000000000000000000000000000000000000000000000000000"
          ],
          "data": "0x0000000000000000000000000000000000000000000000000000000066d3020c",
          "blockHash": "0x8a96e5cf33e15fba2ff47a7f0c9d776ee425bc11ed2c7612901dad8459dfeccb",
          "blockNumber": "0x64cd4f",
          "transactionHash": "0x27dd242c0c1c0f14ec42ceafadb101b740182881c83224d0b595533ff60dc60f",
          "transactionIndex": "0x49",
          "logIndex": "0x5e",
          "removed": false
        },
        {
          "address": "0x4b78ce5e47e73d0eb3455d1bee1226b17070c6bb",
          "topics": [
            "0x0559884fd3a460db3073b7fc896cc77986f16e378210ded43186175bf646fc5f",
            "0x000000000000000000000000000000000000000000000088e16a09fa05540000",
            "0x0000000000000000000000000000000000000000000000000000000000000002"
          ],
          "data": "0x0000000000000000000000000000000000000000000000000000000066d3020c",
          "blockHash": "0x8a96e5cf33e15fba2ff47a7f0c9d776ee425bc11ed2c7612901dad8459dfeccb",
          "blockNumber": "0x64cd4f",
          "transactionHash": "0x27dd242c0c1c0f14ec42ceafadb101b740182881c83224d0b595533ff60dc60f",
          "transactionIndex": "0x49",
          "logIndex": "0x5f",
          "removed": false
        }
      ],
      "logsBloom": "0x04000000000000000000000000000000000000000000000080000000000000000000000010000000000000000000000000000000000200000000000000000000000000000000000000000000002000000000000001000000000000000000000000000000020000000000000000000800000000000000000000000000000000000000000000000000000000000000000000000480000000000000000000000100000000001000000000000100000000000000000000000000000000000000000000000000000000000000000000000000000000000000000000000000000020000000000000000000000200000000000000000000008000000000010000000000",
      "type": "0x0",
      "transactionHash": "0x27dd242c0c1c0f14ec42ceafadb101b740182881c83224d0b595533ff60dc60f",
      "transactionIndex": "0x49",
      "blockHash": "0x8a96e5cf33e15fba2ff47a7f0c9d776ee425bc11ed2c7612901dad8459dfeccb",
      "blockNumber": "0x64cd4f",
      "gasUsed": "0xd96d",
      "effectiveGasPrice": "0xe2f7b56e",
      "from": "0x0fbaecf514ab7145e514ad4c448f417be9292d63",
      "to": "0x4b78ce5e47e73d0eb3455d1bee1226b17070c6bb",
      "contractAddress": null
    }
  ],
  "libraries": [],
  "pending": [],
  "returns": {},
  "timestamp": 1725104658,
  "chain": 11155111,
  "commit": "630c87c"
}